{
  "_format": "hh-sol-artifact-1",
  "contractName": "IdentityRegistry",
  "sourceName": "contracts/IdentityRegistry.sol",
  "abi": [
    {
      "anonymous": false,
      "inputs": [
        {
          "indexed": false,
          "internalType": "string",
          "name": "did",
          "type": "string"
        }
      ],
      "name": "DIDRegistered",
      "type": "event"
    },
    {
      "anonymous": false,
      "inputs": [
        {
          "indexed": false,
          "internalType": "string",
          "name": "did",
          "type": "string"
        }
      ],
      "name": "DIDUnregistered",
      "type": "event"
    },
    {
      "anonymous": false,
      "inputs": [
        {
          "indexed": false,
          "internalType": "string",
          "name": "vcHash",
          "type": "string"
        }
      ],
      "name": "VCRevoked",
      "type": "event"
    },
    {
      "anonymous": false,
      "inputs": [
        {
          "indexed": false,
          "internalType": "string",
          "name": "vcHash",
          "type": "string"
        }
      ],
      "name": "VCUnrevoked",
      "type": "event"
    },
    {
      "inputs": [
        {
          "internalType": "string",
          "name": "did",
          "type": "string"
        }
      ],
      "name": "isDIDRegistered",
      "outputs": [
        {
          "internalType": "bool",
          "name": "",
          "type": "bool"
        }
      ],
      "stateMutability": "view",
      "type": "function"
    },
    {
      "inputs": [
        {
          "internalType": "string",
          "name": "vcHash",
          "type": "string"
        }
      ],
      "name": "isVCRevoked",
      "outputs": [
        {
          "internalType": "bool",
          "name": "",
          "type": "bool"
        }
      ],
      "stateMutability": "view",
      "type": "function"
    },
    {
      "inputs": [
        {
          "internalType": "string",
          "name": "did",
          "type": "string"
        }
      ],
      "name": "registerDID",
      "outputs": [],
      "stateMutability": "nonpayable",
      "type": "function"
    },
    {
      "inputs": [
        {
          "internalType": "string",
          "name": "",
          "type": "string"
        }
      ],
      "name": "registeredDIDs",
      "outputs": [
        {
          "internalType": "bool",
          "name": "",
          "type": "bool"
        }
      ],
      "stateMutability": "view",
      "type": "function"
    },
    {
      "inputs": [
        {
          "internalType": "string",
          "name": "vcHash",
          "type": "string"
        }
      ],
      "name": "revokeVC",
      "outputs": [],
      "stateMutability": "nonpayable",
      "type": "function"
    },
    {
      "inputs": [
        {
          "internalType": "string",
          "name": "",
          "type": "string"
        }
      ],
      "name": "revokedVCs",
      "outputs": [
        {
          "internalType": "bool",
          "name": "",
          "type": "bool"
        }
      ],
      "stateMutability": "view",
      "type": "function"
    },
    {
      "inputs": [
        {
          "internalType": "string",
          "name": "did",
          "type": "string"
        }
      ],
      "name": "unregisterDID",
      "outputs": [],
      "stateMutability": "nonpayable",
      "type": "function"
    },
    {
      "inputs": [
        {
          "internalType": "string",
          "name": "vcHash",
          "type": "string"
        }
      ],
      "name": "unrevokeVC",
      "outputs": [],
      "stateMutability": "nonpayable",
      "type": "function"
    }
  ],
  "bytecode": "0x608060405234801561001057600080fd5b50610ab5806100206000396000f3fe608060405234801561001057600080fd5b50600436106100885760003560e01c8063570810e21161005b578063570810e214610139578063c65e0e4c14610155578063dc16c9b814610185578063feda6adf146101a157610088565b806306a63d1e1461008d5780631de3f1dc146100bd578063267b7b23146100ed57806335a9f5b214610109575b600080fd5b6100a760048036038101906100a2919061075c565b6101bd565b6040516100b491906107c0565b60405180910390f35b6100d760048036038101906100d2919061075c565b6101f3565b6040516100e491906107c0565b60405180910390f35b6101076004803603810190610102919061075c565b610227565b005b610123600480360381019061011e919061075c565b610303565b60405161013091906107c0565b60405180910390f35b610153600480360381019061014e919061075c565b610339565b005b61016f600480360381019061016a919061075c565b610416565b60405161017c91906107c0565b60405180910390f35b61019f600480360381019061019a919061075c565b61044b565b005b6101bb60048036038101906101b6919061075c565b610527565b005b6000818051602081018201805184825260208301602085012081835280955050505050506000915054906101000a900460ff1681565b60008082604051610204919061084c565b908152602001604051809103902060009054906101000a900460ff169050919050565b600181604051610237919061084c565b908152602001604051809103902060009054906101000a900460ff1615610293576040517f08c379a000000000000000000000000000000000000000000000000000000000815260040161028a906108c0565b60405180910390fd5b600180826040516102a4919061084c565b908152602001604051809103902060006101000a81548160ff0219169083151502179055507f343d8ea218fcf31cf063ba106a04b181b9d2d52224b693dbef557a5fed7d33e6816040516102f89190610919565b60405180910390a150565b6001818051602081018201805184825260208301602085012081835280955050505050506000915054906101000a900460ff1681565b600081604051610349919061084c565b908152602001604051809103902060009054906101000a900460ff16156103a5576040517f08c379a000000000000000000000000000000000000000000000000000000000815260040161039c90610987565b60405180910390fd5b60016000826040516103b7919061084c565b908152602001604051809103902060006101000a81548160ff0219169083151502179055507ff33dad7638394be78e889d9c8fef4ae0b61e1f55e344896dd80588ccecf58f558160405161040b9190610919565b60405180910390a150565b6000600182604051610428919061084c565b908152602001604051809103902060009054906101000a900460ff169050919050565b60018160405161045b919061084c565b908152602001604051809103902060009054906101000a900460ff166104b6576040517f08c379a00000000000000000000000000000000000000000000000000000000081526004016104ad906109f3565b60405180910390fd5b60006001826040516104c8919061084c565b908152602001604051809103902060006101000a81548160ff0219169083151502179055507fef56b099ae0cbae653a4fc19d0ecb1e3da0240aef4705dad052852b56d1f09018160405161051c9190610919565b60405180910390a150565b600081604051610537919061084c565b908152602001604051809103902060009054906101000a900460ff16610592576040517f08c379a000000000000000000000000000000000000000000000000000000000815260040161058990610a5f565b60405180910390fd5b600080826040516105a3919061084c565b908152602001604051809103902060006101000a81548160ff0219169083151502179055507f1eb142db66bea796a943f582442650603183582575d2fc598df094f1dec3448c816040516105f79190610919565b60405180910390a150565b6000604051905090565b600080fd5b600080fd5b600080fd5b600080fd5b6000601f19601f8301169050919050565b7f4e487b7100000000000000000000000000000000000000000000000000000000600052604160045260246000fd5b61066982610620565b810181811067ffffffffffffffff8211171561068857610687610631565b5b80604052505050565b600061069b610602565b90506106a78282610660565b919050565b600067ffffffffffffffff8211156106c7576106c6610631565b5b6106d082610620565b9050602081019050919050565b82818337600083830152505050565b60006106ff6106fa846106ac565b610691565b90508281526020810184848401111561071b5761071a61061b565b5b6107268482856106dd565b509392505050565b600082601f83011261074357610742610616565b5b81356107538482602086016106ec565b91505092915050565b6000602082840312156107725761077161060c565b5b600082013567ffffffffffffffff8111156107905761078f610611565b5b61079c8482850161072e565b91505092915050565b60008115159050919050565b6107ba816107a5565b82525050565b60006020820190506107d560008301846107b1565b92915050565b600081519050919050565b600081905092915050565b60005b8381101561080f5780820151818401526020810190506107f4565b60008484015250505050565b6000610826826107db565b61083081856107e6565b93506108408185602086016107f1565b80840191505092915050565b6000610858828461081b565b915081905092915050565b600082825260208201905092915050565b7f564320616c7265616479207265766f6b65640000000000000000000000000000600082015250565b60006108aa601283610863565b91506108b582610874565b602082019050919050565b600060208201905081810360008301526108d98161089d565b9050919050565b60006108eb826107db565b6108f58185610863565b93506109058185602086016107f1565b61090e81610620565b840191505092915050565b6000602082019050818103600083015261093381846108e0565b905092915050565b7f44494420616c7265616479207265676973746572656400000000000000000000600082015250565b6000610971601683610863565b915061097c8261093b565b602082019050919050565b600060208201905081810360008301526109a081610964565b9050919050565b7f5643206e6f74207265766f6b6564000000000000000000000000000000000000600082015250565b60006109dd600e83610863565b91506109e8826109a7565b602082019050919050565b60006020820190508181036000830152610a0c816109d0565b9050919050565b7f444944206e6f7420666f756e6400000000000000000000000000000000000000600082015250565b6000610a49600d83610863565b9150610a5482610a13565b602082019050919050565b60006020820190508181036000830152610a7881610a3c565b905091905056fea2646970667358221220f1fcf84f955cbbd453d7a348a03529b55cca62bbea296f61f85bc89945c50b4964736f6c63430008180033",
  "linkReferences": {},
  "deployedLinkReferences": {}
}